:10600000C00A0020196A0000156A0000156A000025
:10601000E98F0000156A0000156A0000156A00008B
:10602000156A0000156A0000156A0000156A000074
:10603000156A0000441A0300156A0000156A000082
:10604000156A0000156A0000156A0000156A000054
:10605000156A0000156A0000156A0000156A000044
:10606000156A0000156A0000156A0000156A000034
:10607000719D0000156A0000156A00007569000036
:1060800081690000156A0000156A0000156A0000A9
:10609000156A0000156A0000156A0000156A000004
:1060A000156A0000056C0000DD6B0000156A000039
:1060B000156A000025F20200156A0000CDFC0200FE
:1060C0007DFC020079FC0200E9F30200C9FC020039
:1060D00081FC0200A1FC020085FC020021FD0200FF
:1060E0009DD4020065D6020009FD0200156A000079
:1060F0005D880000156A0000156A0000156A00003E
:10610000156A0000156A0000156A0000156A000093
:10611000156A0000156A0000156A0000156A000083
:10612000156A0000156A0000156A0000156A000073
:10613000156A0000156A0000156A0000156A000063
:1061400010B5054C237833B9044B13B1044800E073
:1061500000BF0123237010BD980E00200000000036
:106160007C69030008B5034B1BB10349034800E0F9
:1061700000BF08BD000000009C0E00207C690300E9
:10618000154B002B08BF134B9D46A3F5803A002109
:106190008B460F461348144A121A2AF022FD0F4B61
:1061A000002B00D098470E4B002B00D098470020C2
:1061B000002104000D000D48002802D00C4800E02A
:1061C00000BF2AF0A7FC2000290000F0C9FA2AF03D
:1061D0007BFC00BF00000800C00A00200000000097
:1061E00000000000980E0020902B0020000000000E
:1061F000000000004FF090431A46596811B1996AA7
:106200000029FAD10123D3607047000007B50421AB
:1062100001AB0022084620F0F9FC019A054BB2FBC5
:10622000F3F003FB102000F5C330A03003B05DF89D
:1062300004FB00BFA0BB0D00072808B524D1022035
:106240000CF0BAF81C4A13780133DBB2137003F078
:106250000303012B0AD14FF09042936A13F0080315
:10626000FBD11362BDE80840FFF7C4BF022B0CD17D
:106270004FF090439A6A1107FCD44FF4FA421B6A1C
:1062800093FBF2F30D4A136008BD032B06D14FF0C8
:106290009042936A13F00803FBD1E2E7002BF3D19D
:1062A0004FF090439A6A1207FCD44FF4A0721B6A15
:1062B00093FBF2F3024AE6E7D10E0020E80E00203D
:1062C000CC0E002030B50722012489B023461146A8
:1062D0000220CDE9004401F0F9FC00F063FC1C4908
:1062E000072000F06DFC21463E2000F077FE194BA0
:1062F0004FF0904518689A88069053F8060FADF84D
:106300001C201B7902908DF80C3004908DF814300D
:1063100000204FF400438DF818008DF81C006B63CB
:106320004CF2503302A92B6401F0A0FD04A92046D1
:1063300001F09CFD06A801F0D5FD4FF48052AB6939
:1063400043F05003AB61044B1A6009B030BD00BF8D
:1063500039620000B817030000E100E07047000058
:106360002DE9FF410368BD4A23F47F4323F007036F
:106370009342044600F0C58031D8B94A934200F0F8
:106380003F810BD8A2F56022934265D002F5A0228E
:10639000934200F09B8004B0BDE8F081B14A934283
:1063A00000F0368102F18072934200F0A881AE4A7B
:1063B0009342F0D100220221104620F053FCAB4B57
:1063C00002221878042120F0B5FAA188A84809F023
:1063D0007BFD42F2A0030821A64AD150DBE7A64A82
:1063E000934200F0FE8013D802F17E42934200F007
:1063F000848102F180729342CDD1B0F805109F489C
:1064000009F062FD207904B0BDE8F04120F0B4BA93
:106410009B4A934265D002F1037202F50032934227
:1064200000F0648102F17D429342B4D1954809F0B5
:106430004BFD954809F048FD0023A0228B4C1146E6
:106440002078009320F012FA02220421207804B070
:10645000BDE8F04120F06EBA06228C4C0223A270F7
:10646000FF2201274FF00F082271627188490C2228
:10647000E01D2370A371677084F803802AF094FCF8
:106480000E23844D794E2B70092383490722A81CC3
:106490006B702AF089FC304620F0CAF9014600B141
:1064A000FEE723461322307820F00EFA00B1FEE713
:1064B0002B4642463946307820F006FA00B1FEE716
:1064C000764804B0BDE8F04109F0FEBC744B027B95
:1064D0001A70437B002B7FF45EAF0822714B1A6069
:1064E00059E70379022B7FF456AF6F4B00211A78DE
:1064F000102001321A70012204B0BDE8F04120F0F2
:1065000059BA6A4C6A4D2268022A10D9694B1B7825
:1065100003F00303022B0AD1674809F0D5FC0123DD
:1065200066482B7009F0D0FC654809F0CDFC236863
:10653000022B17D85F4B1C7804F00304022C11D1F6
:10654000604809F0C1FC2146072020F069FA0120CB
:1065500020F086FAFFF75AFE5B4B186020F09EFA97
:1065600020F01CFB2B78DBB1584B1B68013B122B36
:1065700016D820F02FFB564809F0A6FC514809F028
:10658000A3FC0221072020F04BFA012020F068FA3A
:10659000FFF73CFE4C4B186020F080FA20F0FEFA2A
:1065A0002B78002B3FF4F7AE484B1B68132B7FF67C
:1065B000F2AE484809F088FC424809F085FC022107
:1065C000072020F02DFA012020F04AFAFFF71EFEE6
:1065D0003D4B186020F062FA04B0BDE8F04120F0B5
:1065E000DDBA437A827A017940790390A0790290EA
:1065F000E0790190207A0090374809F065FCCAE6FE
:10660000D0F80510354804B0BDE8F04109F05CBC95
:10661000334809F059FC062400250A27314E2AF098
:1066200067FAC0B2FF283070F9D02AF099FB3378AE
:10663000013C303B14F0FF0407FB0535EFD1224C41
:1066400029462948256009F03FFC154B2168187838
:1066500004B0BDE8F04120F03FBA00BFA000010344
:10666000A0000F00A0000F01A0000601C00A00203A
:106670000718030000C00340A0000F05BE19030067
:10668000A0000107101903001D190300B40E00201B
:10669000C3170300D80E0020D0170300D81703003B
:1066A000D00E0020A0D00340D20E0020E80E002023
:1066B000C70E0020D10E00202C1803004A1803003A
:1066C00078180300A0180300D40E0020CC0E002080
:1066D000B4180300CE180300EB18030036190300AA
:1066E00059190300C80E002080190300154B012121
:1066F000187820F033FA1448E3E61448E1E6D0F8BD
:106700000510134809F0E0FB124C2AF0F1F9C1B270
:10671000FF292170F9D0104809F0D6FB237803F047
:10672000DF03592B074B05D10121187820F0F6F92A
:106730000A48C6E60021187804B0BDE8F04120F010
:10674000EDB900BFD00E002096190300B019030068
:10675000DC190300C80E0020171A03001B1A0300DF
:1067600008B503F022FBFFF7ADFD03F02BFBFFF7AD
:10677000F5FD02F055FDF8E708B504480BF02EFCD6
:10678000BDE8084002480BF05BBC00BFD01C030012
:10679000B01C03000120704700B5C3B00BF078FDBA
:1067A0000BF0A1FD48B1FFF7F5FF30B101A820F0D3
:1067B00039F810B901A8FFF7D3FD43B05DF804FB29
:1067C000704708B50321802000F094FF08214FF4A2
:1067D000C06000F08FFF08214FF4F06000F08AFFE6
:1067E00008213E2000F086FF08212D2000F082FFC6
:1067F000002008BD10B501213A2000F0EFFB002376
:1068000001220721022001F0BDFABDE8104003215A
:1068100000230422084601F0B5BA0000194B10B558
:106820001B68C3F30743012B10D1174B4FF4802291
:10683000596E41F2640049034FF0040458BF42F21C
:1068400064011A501148046058BF5A5001F0FAFD13
:1068500000F0DCF801F086FD01F012FE01F0A4FD6D
:1068600001F0D0FD01F0D4FDFFF7ABFF01F08AFD90
:1068700000F0C3F800F0DAF902F032FFBDE8104092
:1068800002F022BC0080E00F008000402020014088
:10689000FFF7B0BF08B502F0E9FF01F0F3FD00F02B
:1068A0005BF805F012FCBDE8084002F0FDBA08B53F
:1068B00001F02CFD01F036FDBDE80840FFF75CBF9C
:1068C000704770477047FFF767BF704770B5114E4C
:1068D00092B035460BAC0FCD0FC495E807000323EB
:1068E00084E8070003AD8DF8443006F11C030FCB9C
:1068F00007AC85E80F0006F12C030FCB84E80F00EE
:10690000054B0BAA009321462B46044802F0CCF914
:1069100012B070BD001D03000C0F00206C0F002092
:10692000831E012B0AD8012908D80422094B1B68B1
:10693000C3F340130521002001F024BA02390129D4
:1069400007D8012805D8034B00221B68C3F3401366
:10695000F0E7704710C0034008B50449044802F04E
:106960003DFCBDE80840FFF7B1BF00BFD00A0020E2
:10697000440F0020014B186802F058BA6C0F002039
:10698000FFF7F8BF014802F091B800BF6C0F00207C
:10699000012070470120704710B50BF0E5FC04465C
:1069A000FFF7F6FF002814BF2046002010BD38B5C1
:1069B00003F028F904460BF0E5FC042817D0022860
:1069C0004FF0000508BF0124FFF7DCFF042810D0BA
:1069D000022808BF0124FFF7DDFF04280BD002289E
:1069E00008BF0124002D18BF0024204638BD012512
:1069F000EAE70125EFE70024F7E708B501213A208F
:106A000000F0ECFABDE80840FFF7DABE01213A20B9
:106A100000F0E4BAFEE7000008B500F013F8064AFB
:106A2000064B07498B4201D3FFF7AAFB52F8040F2C
:106A300043F8040BF6E700BF80690300C00A00209A
:106A4000980E0020044B054A9A60D3F8882042F43F
:106A50007002C3F88820704700ED00E0006000007D
:106A6000014B1868704700BFDC0A0020084B1B6F01
:106A700003F00703022B04D0032B05D0012B05D014
:106A8000FEE7044B18687047034BFBE70348704769
:106A900000800040DC0A0020E00A0020002D3101C7
:106AA00008B5FFF7E3FF054B1B6FC3F30333013357
:106AB000B0FBF3F0024B186008BD00BF008000403F
:106AC000D80A00200048704700B4C404014B18687D
:106AD000704700BFE00A0020054B1860054B1B6F94
:106AE00003F00703032B01D1FFF7DABF704700BFA4
:106AF000E00A0020008000400020704700487047F6
:106B0000002D31014FF4004070474FF47A70704708
:106B1000014B1868704700BFE40A002028231B6857
:106B2000B3F5C04F03D21968064A914203D000233F
:106B3000037083607047012202709A689B6942600B
:106B4000F7E700BF07B0CD5E00230360704703681E
:106B50000B60016070470000054A0649136818443D
:106B600088428CBF4FF0FF3310601846704700BF5B
:106B7000E80A00200080002070B504460125084E78
:106B800004B970BD94FAA4F0B0FA80F005FA00F3ED
:106B900024EA030456F82030002BF1D09847EFE7A1
:106BA000900F00204FF00072044BC3F880211A6050
:106BB0004FF08062C3F880211A60704700E100E066
:106BC00038B504460D4600F0DEFE034B43F8245072
:106BD000BDE8384000F0DDBE900F0020084BD3F830
:106BE0002404D3F82024104042F2204220F42A50FA
:106BF00020F02A004004400C9850FFF7BDBF00BFB2
:106C000000C00340084BD3F82404D3F820241040DC
:106C100042F2204220F4AA4020F055000004000C6B
:106C20009850FFF7A9BF00BF00C00340024B19688E
:106C3000024B18680AF080BCF00A0020EC0A002021
:106C40007047000070B59400224605460E462AF0B3
:106C5000ABFD431C02D018B1064800E0064870BDE9
:106C600022463146284629F089FF0028034808BFFC
:106C70000020F4E724E000F021E000F010E000F054
:106C800013B5044601A801F05BF99DF80630012216
:106C900023804FF4807300206380054B9B680A3388
:106CA00003F01F0302FA03F3636002B010BD00BFDC
:106CB0000080E00F01F0BCB808B501F0A5F8002095
:106CC00008BD10B5044644EA010313F00303084667
:106CD00009D1934201D1002010BD54F8231040F88F
:106CE00023100133F5E79200214629F056FFF2E721
:106CF00010B504462AF048FD431C02D018B10C48D8
:106D000000E00C4810BD0C4B20469B680A3303F092
:106D10001F020123934023F003032344984201D12F
:106D20000020EFE750F8042B0132F7D00348E9E7E1
:106D300024E000F021E000F00080E00F0EE000F021
:106D400008B500F019FE014B186008BDB8260020F8
:106D5000014B186800F014BEB82600200A4601391D
:106D6000014402F0F1B80000054A1368DB06FCD4C8
:106D70004FF04023D3F88400C0F38110704700BF68
:106D80008440004038B5104B0546D3F820310C46FE
:106D900003F00303022B0BD0032B0DD0012B0FD1DB
:106DA000FFF75EFE052305B1286004B1237038BDEE
:106DB000FFF78CFE0323F6E7FFF7A0FE0223F2E7BE
:106DC00000231846EFE700BF0080004073B50D4672
:106DD00000210E4B0191D3F88041064604F00304D4
:106DE000012C08D0022C0BD00EB1019B336005B1F1
:106DF000297002B070BD01A8FFF7C4FF0D21F3E7B1
:106E0000FFF77CFE21460190EEE700BF00800040C6
:106E100038B5174B0546D3F824310C4603F0070369
:106E2000013B052B20D8DFE803F0030F171B0B13E2
:106E3000FFF716FE052305B1286004B1237038BDA5
:106E4000FFF70EFE0623F6E7FFF740FE0323F2E707
:106E5000FFF73CFE0423EEE7FFF750FE0223EAE7CC
:106E6000FFF74AFE0723E6E700231846E3E700BFE3
:106E70000080004038B5104B0546D3F840310C4631
:106E800003F00303022B0BD0032B0DD0012B0FD1EA
:106E9000FFF738FE092305B1286004B1237038BD1F
:106EA000FFF736FE0823F6E7FFF72FFE0A23F2E787
:106EB00000231846EFE700BF0080004038B5134BB1
:106EC0000546D3F800320C4603F00703013B032BC1
:106ED00018D8DFE803F0020A0E12FFF713FE0923A9
:106EE00005B1286004B1237038BDFFF711FE0823F7
:106EF000F6E7FFF70AFE0A23F2E7FFF7D1FD0C23BE
:106F0000800AEDE700231846EAE700BF0080004052
:106F100038B5104B0546D3F840320C4603F0030356
:106F2000022B0BD0032B0DD0012B0FD1FFF7EAFD65
:106F3000092305B1286004B1237038BDFFF7E8FDCF
:106F40000823F6E7FFF7E1FD0A23F2E700231846DE
:106F5000EFE700BF0080004038B5104B0546D3F87E
:106F600060310C4603F00303022B0BD0032B0DD032
:106F7000012B0FD1FFF7C6FD092305B1286004B12D
:106F8000237038BDFFF7C4FD0823F6E7FFF7BDFD0A
:106F90000A23F2E700231846EFE700BF0080004015
:106FA0000D4B10B4D3F820320A4603F00303012B33
:106FB0000AD0022B0CD008B1002303600AB10023D1
:106FC00013705DF8044B70475DF8044BFFF7DABEB1
:106FD0005DF8044BFFF74EBF00800040430910B539
:106FE00007D0012B0FD00A4C0A4A022B14BF2346AC
:106FF000134600F01F0041B103F58053012202FA4D
:1070000000F0186010BD044BF3E703F50053F5E7FB
:10701000608200406880004064800040B0F5007FDE
:1070200018D005D880B1B0F5C07F0DD000200FE09A
:10703000B0F5207F14D0B0F5607FF7D10B4BD3F8BB
:107040008000C0F3011003E0084B186FC0F3033059
:1070500001307047054BD3F89000C0F30460F7E7A8
:10706000024B186FC0F38020F2E700BF00800040A1
:10707000002313B53E280446019300F0B18042D8A6
:107080002B2828D01FD8232813D00CD8202849D04B
:1070900004D8002846D0019802B010BD212808D09D
:1070A00022283FD0F7E7292800F290802828C0F056
:1070B0008380FFF7F5FC02464FF42070FFF7AEFF28
:1070C000B2FBF0F071E0312810D82F28F1D22D2832
:1070D00000F0818056D9FFF7E3FC02464FF42070A0
:1070E000FFF79CFFB2FBF0F040085EE03C2855D86B
:1070F0003A28DED2382864D03928CCD1002101A822
:10710000FFF786FEC7E7B0F5007F50D01BD85228A6
:1071100052D00AD84D2805D002D83F28C9D0BAE7A6
:107120004F28B8D3FFF7BCFC3FE080283BD004D801
:10713000A0F16004012CF5D9ADE7B0F5807F21D036
:10714000B0F5C07FADE7B0F5A06F3AD010D8B0F57C
:10715000607F2CD006D8B0F5207FAAD0B0F5407F54
:10716000B9D098E7B0F5806F26D0B0F5906FC4E73E
:10717000B0F5D06F2FD00AD8B0F5B06F26D0B0F5EB
:10718000C06F88D1002101A8FFF774FE83E7B0F536
:10719000E06F25D0B0F5F06F7FF47DAF002101A83E
:1071A000FFF7DAFE77E7FFF761FC019073E7FFF77F
:1071B0005DFC0246204681E7002101A8FFF7E2FDC1
:1071C00069E7002101A8FFF7EBFE64E7002101A8B1
:1071D000FFF7FCFD5FE7002101A8FFF76FFE5AE70C
:1071E000002101A8FFF794FE55E7000008B58020B4
:1071F000FFF73EFF044B98429FBF42F270034FF4EB
:107200008031024AD15008BD005A6202008000401D
:1072100038B5054641F268034FF400300D4AD050AE
:107220000020FFF7FBFE41F671320B4B6843DC692F
:107230000A4DDA639A68A84204F4803422F44012BA
:1072400003D9012918BF42F480129A600CB10022C0
:10725000DA6338BD0080004000000340005A62023B
:1072600008B5FFF72FFCBDE808400021FFF7D0BFAD
:10727000002307B5B0F5807F8DF8073010D031D8E6
:107280002D287DD012D82A2843D007D824380328A7
:1072900033D99DF8070003B05DF804FB2C28F8D122
:1072A0000DF107010020FFF7E5FDF2E73E2840D091
:1072B00009D8382874D03D28EBD10DF10701002002
:1072C000FFF74AFEE5E7522817D08028E1D1374B77
:1072D0001B6F03F00703013B032BDAD8DFE803F051
:1072E0004844425CB0F5C06FDAD018D8B0F5906F62
:1072F00040D008D8B0F5806FCBD10DF10701002048
:10730000FFF740FDC5E7B0F5A06F49D0B0F5B06F0D
:10731000BFD10DF107010020FFF758FDB9E7B0F527
:10732000F06FCAD00BD8B0F5D06F29D0B0F5E06FB0
:10733000AFD10DF107010020FFF7EAFDA9E7B0F595
:10734000006F17D0B0F5086FA3D1184BD3F80031F8
:1073500003F00303022B19D0032B1BD0012B1DD1EB
:10736000FFF7B4FB032300E005238DF8073090E717
:107370000223FAE70DF107010020FFF749FD88E736
:107380000DF107010020FFF799FD82E7FFF7C0FB31
:107390000823EAE7FFF7B0FB0723E6E70123E4E76A
:1073A0000DF107010020FFF7FBFD72E700800040B0
:1073B00008B5FFF75DFF082804D0092805D04FF66F
:1073C000FF7001E0094B188808BD41F264034FF4D7
:1073D0000011074A4FF6FF70D150064B5B6A13F05D
:1073E000010F18BF4FF4FA70EEE700BF100B00203A
:1073F000008000400040024070B504468020FFF746
:1074000037FF032800F0868041F264034FF4002127
:10741000454AD15045F60E0302F58042C2F880304D
:10742000022141F22803D15042F228030121D15018
:10743000916D11F48031FBD1637820781B0543EA0C
:107440000063A079657C0343E07843EA0043207938
:1074500043EA0033607943EA801313619369E07A69
:1074600003F000430343E07943EA8063207A43EA70
:107470000063607A43EA0043A07A43EA0023936101
:10748000637B126A002B18BF0821207B22F00D02BB
:1074900043EA020343EA800341EA0301A27B234B50
:1074A0004FEA42161962207C35D1996AE27B21F0BD
:1074B000330141F00101314341EA02119962194659
:1074C0001B4A9E6D32EA0606FBD1022241F22806D3
:1074D0009A511A658B6D5B00FCD40B69A27823F47A
:1074E000700343EA02530B614FF0004241F218036C
:1074F000CA5018B942F228030222CA5025B942F2F2
:1075000028030121094AD150A37C1BB1074B094A2A
:10751000C3F8802070BD9A6A22F033022A433243B6
:1075200042EA40029A62EFE70080004000C000405B
:1075300003000140F1A7FFFFF0B541F264034FF4EF
:1075400080071B4E41788478C2780578F7504FF455
:10755000D156184B02275E6241F204064F299F5113
:1075600042F204064FF0010728BF4F219F511E69C8
:10757000F603FCD441EA052159611201417942EA3E
:1075800004220A43017942EA41029A60C279817970
:10759000120142EA4112417A0A43017A42EA410267
:1075A0005A60827A12B16FF4D1525A62F0BD00BFB4
:1075B0000080004000000240014B1880704700BF6F
:1075C000100B002010B50446FFF780FA41F2640367
:1075D0004FF40011094AD1500222094B5A609A68AF
:1075E00012F48032FBD1012C18BF5A624FF0000216
:1075F00008BF5C62024B5A6010BD00BF00800040B3
:10760000004002400029CCBF01210021FFF700BE4D
:1076100010B50446FFF724FE00F054F841F2700361
:107620004FF480310C4A013CD150106F20F470406F
:1076300040EA04301067FFF733FA0446FFF794FB83
:10764000C0F102012046FFF7DDFF00F041F8BDE880
:107650001040FFF7CBBD00BF00800040B0F5007FB9
:107660001AD004D850B1B0F5C07F07D07047B0F53C
:10767000207F1CD0B0F5607F03D070470846FFF72D
:10768000C7BF0F4A0139D2F8803023F0300343EAF4
:107690000111C2F880107047094A0139D2F89030C0
:1076A00023F0F85343EA0161C2F890107047044A8E
:1076B0000139136F23F4806343EA81211167704716
:1076C0000080004002214FF42070FFF7C7BF000088
:1076D00008B54FF4C070FFF7CBFCBDE80840044983
:1076E00088428CBF022101214FF42070FFF7B6BF02
:1076F00080F0FA02B0F5807F70B50C460DD043D80B
:107700002D2800F0058119D82A2861D003D8243803
:10771000032845D970BD2C28FCD1083CE4B2022CCA
:107720008CBF00218B4B8C4A98BF195DD2F8403139
:1077300023F003030B43C2F84031EBE73E2861D04E
:1077400015D8382800F0F5803D28E3D1083CE4B294
:10775000022C8CBF0021814B7F4A98BF195DD2F863
:10776000603123F003030B43C2F86031D2E75228A3
:1077700016D08028CED18B1E052B00F2B580DFE815
:1077800003F0B09DB36AB3ADB0F5C06FC5D02ED8CD
:10779000B0F5906F00F0AB8013D8B0F5806FB9D121
:1077A000023CE4B2032C8CBF00216D4B6A4A98BFA7
:1077B000195DD2F8203123F003030B43C2F82031C6
:1077C000A8E7B0F5A06F00F0B480B0F5B06FA1D11C
:1077D000022C03D0A4F10D035C425C415E4AD2F856
:1077E000803123F003031C43C2F8804192E7B0F5D7
:1077F000F06FABD017D8B0F5D06F00F08980B0F53E
:10780000E06F87D1083CE4B2022C8CBF0021554BBD
:10781000514A98BF195DD2F8403223F003030B435D
:10782000C2F8403276E7B0F5006F60D0B0F5086F6F
:107830007FF470AFCC1EE4B2052C8CBF00214A4B04
:10784000454A98BF195DD2F8003123F003030B437A
:10785000C2F800315EE7002502260121022000F077
:107860003DF9FFF7FDFCFFF72DFF4FF4803141F2AA
:107870007003394AD150136F23F007033343136762
:10788000FFF70EF90646FFF76FFAC0F10201304626
:10789000FFF7B8FE0121002000F05CF9FFF718FFA8
:1078A000FFF7A4FC002D7FF435AF032C7FF432AF3B
:1078B00042F2280301212D4AD1502BE741F2640303
:1078C0004FF40021244A0326D15041F2280201211D
:1078D000264B9D6A9950C5F34005BEE70025042656
:1078E000BBE700250126B8E700252E46B5E7023C98
:1078F000E4B2052C8CBF00211D4B174A98BF195DBF
:10790000D2F8243123F007030B43C2F8243101E7F6
:10791000083CE4B2042C8CBF0021164B0E4A98BFE1
:10792000195DD2F8003223F007030B43C2F800328E
:10793000F0E60D2C0CD00E2C0CBF02210021064AC3
:10794000D2F8203223F003030B43C2F82032E1E6E1
:107950000121F4E7641D030000800040641D030062
:10796000601D0300641D0300721D030000C0004081
:10797000671D03006D1D0300EFF3108072B67047A2
:1079800000B962B67047EFF31180302383F311889A
:10799000704780F311887047024B9B6803EB8000AF
:1079A0000164704700ED00E0F0B50024059D9DF8EE
:1079B00018709C4202D10C4B9A60F0BD37B18C42DA
:1079C0000ED250F8246042F8246005E08C4252F850
:1079D000246003D2002EF4D00134EAE7002EFBD15C
:1079E00042F82450F8E700BF00ED00E010B5234B4B
:1079F00070B9186041F264014FF40030204A5050D1
:107A000020494968012902D1D2F800211A6010BD2D
:107A10001B68002BFBD01B4C6268012AF7D0184A68
:107A20008020C2F80031FFF723FC052820D14FF455
:107A3000C070FFF7F3FA0128044604D102214FF485
:107A4000C070FFF70BFE42F2100207210D4B995058
:107A500041F20402012199501A69D207FCD5012C88
:107A6000D5D12146BDE810404FF4C070FFF7F6BDF8
:107A700041F204030122E250C9E700BF10160020C2
:107A80000080004000C0014010B5044610B1002045
:107A9000FFF7ACFF0C4A136943F00403136101F0D4
:107AA0006DFDFFF769FF29F077FEFFF769FF01F031
:107AB00079FD24B1BDE810400120FFF797BFBDE874
:107AC0001040FEF7EDBF00BF00ED00E0FFF7DCBFA8
:107AD0000020FFF78BBF0120FFF788BF38B50446B1
:107AE0001A4A1368D806FCD44FF04023D3F88430E8
:107AF000C3F381139C4228D0FEF7B8FF012C054642
:107B000002D12146FFF77EFDFFF736FF4FF00071EF
:107B10000F4A4FF0402311604FF48062611E8A408B
:107B20001A675A6E910103D4D3F88420920609D5BE
:107B3000FFF726FF022C08D12846BDE83840002177
:107B4000FFF760BDD3F88420EBE738BD84400040E8
:107B50006460004010B50C4608B9FEF787FF074B7C
:107B600021461B783BB1064B984204D80120BDE862
:107B70001040FFF7B3BF0220F9E700BF1416002042
:107B8000005A62020278034B012100201A70FFF7AD
:107B9000E1BF00BF141600204FF04022536F417820
:107BA00023F4407343EA0123536770474FF04022A8
:107BB000D36E017923F030030B43D3667047000086
:107BC00041F264034FF00041174A10B5D150012132
:107BD00041F204024AF6CD34144B99505A6C1C649D
:107BE0000A4088B99868C40705D542F208001950C0
:107BF000D96AC807FCD542F204010120585012B1DD
:107C00000A4B0B4A1A6410BDD96A0907FCD442F228
:107C100024012020585041F2080101205850034906
:107C20004B6A9B06FCD5EAE7008000400040094013
:107C30003254FFFF38B54FF0004141F26403184A57
:107C4000184CD150012241F20403E2504AF6CD33E0
:107C5000656C236443781540934013434FF04022F2
:107C6000D363A368827823F0740343EA0213C278D3
:107C7000002A14BF042200221343A36002798379EF
:107C800043EA022323614279C379007843EA02235D
:107C90006361FFF795FF0DB1034B2364012038BDED
:107CA00000800040004009403254FFFF70B5054697
:107CB00014460E46FFF760FE2A68544004EA0601A7
:107CC00051402960BDE87040FFF75ABE072A2DE9F0
:107CD000F04116461F4601F003084FF003042DD86B
:107CE0009500AC4000FA05F221461C48FFF7DEFF84
:107CF00021461B4808FA05F2FFF7D8FF194A1A4B2C
:107D00009DF81800002F18BF13460122B2401A60D8
:107D10001649174B002818BF0B461A6042F2204341
:107D200014499DF81C00CA50134B01F5A1510431B0
:107D3000002818BF0B461A60BDE8F081A2F10805C3
:107D4000AD00AC4000FA05F221460C48FFF7AEFF4B
:107D500008FA05F221460A48CEE700BF00C40340F6
:107D600008C4034010D4034010E4034014D403407B
:107D700014E4034000C0034024E4034004C403406F
:107D80000CC40340F0B54AB1012530241D4E8D408E
:107D900004FB00640BB341F21006A55130244443A8
:107DA000072904F1804404F5703419D80F27656859
:107DB0008E00B74025EA070502FA06F635436560EE
:107DC00052B9012202FA01F130220E4C02FB0040AE
:107DD000A3B141F21003C150F0BD42F21006DCE73E
:107DE0000F2701F18045083DE668AD00AF4026EA67
:107DF000070602FA05F53543E560E1E742F21003B4
:107E0000E9E700BF00C0034041F268034FF40031CE
:107E1000054AD15041F67132044B0121DA6342F236
:107E20000C029950704700BF0080004000000340E2
:107E300041F67132074B0121DA6342F20C0299508C
:107E400000224FF40031DA6342F26803024AD15053
:107E5000704700BF00000340008000404FF0904397
:107E60005A6812B19A6A002AFAD17047CB784A78D8
:107E700010B55B010C7843EA82030A79234343EA95
:107E800002130C22424302F190421363012C02BF01
:107E90008A78024B43F8202010BD00BFE8800340E1
:107EA00008B54FF090435A6802B960B15B680BB1F6
:107EB000FFF7D4FF4FF0904130B10120074B18601D
:107EC000FFF7CCFFC86008BDFFF7C8FF0223CB60F7
:107ED000FFF7C4FF0122024B1A60F4E704100048C8
:107EE000042000484FF090435B6870B50BB1FFF77A
:107EF000B5FF0121104B0679196083784578002B76
:107F0000C37814BF02240024002B14BF04220022D3
:107F10004379DB0043EA06132B43234313434FF01B
:107F200090429360054B19600378002B14BF0B46F9
:107F30000223D36070BD00BF042000480410004835
:107F400041F264034FF48031064AD150064B5B691D
:107F5000C3F38512827003F03F021B0B4270037063
:107F6000704700BF0080004000C00740014B032065
:107F70005B6870470080E00F70B5054616461C46EA
:107F800021B94FF42070FFF773F80146202C08D078
:107F900001D8ECB170BD402C18D0602CFAD104226D
:107FA00000E0082206FB02F35A0802EB4112B2FB82
:107FB000F3F2084B203A03EAC202AB6823F06003F5
:107FC000AB60AB681C43AC60EA61E3E70622E9E71B
:107FD0001022E7E7F8FF7F00012241F20403C250BC
:107FE000CB43934003F00A034361416111B942F26C
:107FF0000403C2507047000041F204030122C25042
:1080000040F6AA6341F20502436100238360C36521
:10801000C26042F248020C490361C361C3648150EB
:108020000A4A8365904202D00949884207D19042AA
:10803000036502D0064B984201D10023436542F20A
:1080400004030122C2507047FFFF010000C0054039
:108050000000064038B50D460446FFF7CDFF41F25B
:1080600004030122C250AB7C1BB1836843F0804300
:108070008360EB7C5BB1324A2B7D944243D1A2F505
:108080001032C2F88C31E36D43F08003E3652A8A35
:108090006B7B20461343EA891343E360D5E9011261
:1080A0002B7BFFF769FF6B7D1BB1A36843F4803323
:1080B000A360AB7DEA7D1B07120502F4E00203F02A
:1080C000E043297E1343A3658B1E012B1C4A1D4BE5
:1080D00023D894421FD002F5804294420CBF012263
:1080E0004FF0FF3203EB4213022041F21C620329DE
:1080F00098500CBF41F25C0342F25C030422E25050
:108100002B78636138BD104A944204BFA2F5203237
:10811000C2F89C31B7E70022E4E794420DD00A4A46
:1081200094420CBF01224FF0FF3203EB42130220B6
:1081300042F21C6201299850DBE70022F5E700BFFC
:1081400000C0054000C003400000064083691B06D4
:10815000FCD5406AC0B2704783695B06FCD5C16339
:108160007047000038B50446054D21F00EFA0FCCDB
:108170000FC594E8030085E80300002038BD00BF68
:108180001816002047F6FF739A42F0B55ED0022918
:108190005ED8304BCE0013F831109819012985783C
:1081A00019460DD1C3785B1B23B1416831F9131017
:1081B000914202DCE818C0B2F0BD013B1BB2F3E70C
:1081C00040680028F8D0B0F90030934204DBB0F9E1
:1081D00002309342B8BF13468288FF2A19BFC824D1
:1081E0002827B0F90640B0F90870A4EB03040CBFCF
:1081F0000122002294FBF7F414448A19567824B221
:10820000721EA242A8BF22464FF47A7700EBC20149
:10821000CC888968013213FB041112B221EAE171A2
:1082200001F5FA71B242B1FBF7F104DA00EBC204D6
:10823000A4888C42EAD200EBC20232F8040C8842D5
:1082400028BF0846A84238BF2846B4E7FF20B3E756
:108250000020B1E7181600200229F0B54DD82948B2
:1082600000EBC10510F831106B6801290FD1A87817
:10827000E978914294BFC0EB0102C0EB0202091AF7
:10828000D2B28A42C8BF002233F91200F0BDA3B3B4
:10829000B3F902008242F9DDE978B3F90040914276
:1082A0002DD969789D8897B2FF2D4FF0000514BF36
:1082B00001F1FF310239C9B20433EEB2B1424FEAE3
:1082C000C50606D903EB060CBCF808C00135BC4551
:1082D000F3D24FF47A714A433344B3F902505B68E6
:1082E000D21A022395FBF3F31A4492FBF5F294425F
:1082F00005DB9042CADC10B2C8E70348C6E7204657
:10830000C4E700BF181600200080FFFF08B504482E
:10831000FFF728FFBDE80840012021F038B900BF71
:10832000CC2203007FB51422002101A828F059FCBB
:1083300002230B4A8DF80430029204228DF80D308E
:108340008DF8133005230DEB02014FF0FF308DF84F
:108350000E208DF8143021F087F907B05DF804FB8A
:10836000006A180007B56B46054A1068516803C3D8
:108370006846FFF75FFC002003B05DF804FB00BF18
:10838000781D03004FF0402213B50024536F684658
:1083900043F00103536700948DF80440FFF706FC97
:1083A000204602B010BD000070B586B001AA154687
:1083B000114B03F11006144618685968083303C4BA
:1083C000B3422246F7D14FF6FF7219889B7821807D
:1083D000A3700A4B0A481B88934208BF8C23DBB268
:1083E0008DF80D308DF80E30FEF776FB2846FFF73E
:1083F00003F8002006B070BD801D03000001E00FEF
:1084000000F0490208B50120FFF7DCF8002008BDA4
:108410001FB50B4A01AB1068516803C31189927AEA
:1084200019809A70192301A88DF80530FFF784F898
:108430006420FFF7C1F8002005B05DF804FB00BF21
:10844000931D03006FF00402502110B50A480B4C35
:1084500012F0800FD3B21BBF03F00F03043BA3182D
:108460001B1802F101020CBF83F800131976402A91
:10847000EED1002010BD00BF00ED00E000E100E003
:1084800000F07AB838B501F0F1F90446D8B901F036
:10849000E9FA4FF4167358430C4B00F5742000F2C0
:1084A0003F20B0FBF3F02246094B0A4D18600A4BFF
:1084B000196845F8220001320A2AFAD100EBC002FD
:1084C000084410441860204638BD00BF40420F00E9
:1084D0006C1600203C160020381600207047000063
:1084E000012208B5034B1A7001F0B0FA024B186074
:1084F00008BD00BF3416002068160020F8B5144CE3
:1085000023781BB301F0A2FA124B134D1B68134ED4
:10851000C01A08BF0120124B124F18602B7856F872
:10852000232046F82300111A3A680F48521A0A21EC
:108530003A600932B2FBF1F20133DBB20260B3FB05
:10854000F1F201FB12332B7000232370F8BD00BF42
:108550003416002068160020641600203C16002007
:1085600030160020381600206C160020014B1868C9
:10857000704700BF6C16002020230D494FF40020E7
:1085800081F82C3341F264030A4AD05042F274005D
:10859000094B0A4A1A5042F270001A504FF48050A8
:1085A000C1F88401486041F274015A50704700BF1D
:1085B00000E100E00080004000C00040010000A099
:1085C000054B064A1B78916DC90700D513B10028E9
:1085D000F9D17047012070478416002000C0004088
:1085E0002DE9F843914B1E6F9D6A9C6AF10705F0D7
:1085F000020504F0010452D542F2700201279F5097
:108600008B4ADFF8488292F80090B9F1000F00F031
:10861000F9800021117098F80020BA4200F2ED8034
:1086200042F2280202219F5041F2280299509A6D8D
:10863000D203FCD47F495A6B096822F470620A4362
:108640005A637D487D4A99690068126821F47F0168
:10865000024321F47F410A439A617948794A1969B2
:108660001268006821F47F6121F00F0102430A4380
:108670001A6175499A69096822F0FF020A439A61F2
:108680000222002D40F0B38042F228015A50674B7D
:108690000122002C00F0AE8041F228015A5016F061
:1086A00000517CD042F270024FF0010C5F4B624FE0
:1086B000995066495E4ADFF890E182F800C00A7876
:1086C00062440A705A6B5B4902F4706008609869F2
:1086D0005A4900F47F400860996901F47F013960CC
:1086E0009F69FFB2CEF800701F69DFF858E107F408
:1086F0007C67CEF800701F69DFF844E107F03F07A0
:10870000CEF8007042F2280743F807C041F228076C
:108710004FF0020C43F807C04FF0004C43F807C07D
:108720009F6DFF03FCD442F228074FF0004C22F467
:10873000706242F40072B0F5C84F43F807C05A6344
:1087400002D8B1F5C80F0CD9384A41499369096874
:1087500023F47F0323F47F4343EA012343EA0143E5
:108760009361324B3B491A69096822F47F62880899
:1087700022F00F02024342EA80121A619A6922F043
:10878000FF020A439A610222002D42D142F22801DF
:108790005A500122002C3FD041F228015A50002E9D
:1087A00023DA42F270024FF00041204B99502A4ADE
:1087B0001278D2B142F228020121995041F22802E6
:1087C000022199509A6DD203FCD441F218024FF065
:1087D00000419950022215BB42F228015A50134B16
:1087E0000122FCB141F228015A50BDE8F88341F260
:1087F00028014BE742F2280150E7FFF76FFE164BC6
:108800001F704CE7FFF77AFE00F0F2FD88F8009049
:1088100045E741F22801BBE742F22801BEE741F2F9
:108820002801DBE742F22801DEE700BF00C000407C
:108830008416002088160020801600207C16002058
:10884000781600207416002070160020851600206F
:10885000180B0020140B002086160020FFF7C0BE66
:1088600010B50446FFF788F8024B1C60FFF788F844
:10887000002010BD8C16002010B5FFF77DF8034BCB
:108880001C68FFF77DF8204610BD00BF8C16002045
:1088900070B50C46154610B9FFF7EEFF38B14368C6
:1088A0002BB12A462146BDE87040006818472320B6
:1088B00070BD07B502AB03F8011D01221946FFF791
:1088C000E7FF03B05DF804FB80F82010704790F8D4
:1088D0002000704790F8240070472DE9F8430026E7
:1088E000044690461D461E604F1E2B68434506D326
:1088F0002B68002B0CBF1B200020BDE8F883FFF77E
:1089000042F8D4F81490FFF744F8B9F1000FEFD013
:10891000E368A269D35C07F8013FE368E2690133C9
:108920009342E36008BFE660FFF72DF86369013BFF
:108930006361FFF72EF86368204698472B68013380
:108940002B60D2E72DE9F04104460D46164690F81B
:108950002080FFF711F8012394F8237084F8233066
:10896000FFF70EF82FB9154A394694F8260000F0A3
:10897000DBFB2E44B8F1000F13D0AE4213D02B789E
:108980000A2B03D123680D2120469847236815F848
:10899000011B20469847F0E7236815F8011B204685
:1089A0009847B542F8D194F82600044A012100F016
:1089B000BBFB002084F82300BDE8F0819E1D03006E
:1089C00000280DDB0122430900F01F0002FA00F02D
:1089D000044A203342F82300BFF34F8FBFF36F8F59
:1089E000704700BF00E100E0002809DB01224309D5
:1089F00000F01F0002FA00F0024A603342F8230040
:108A0000704700BF00E100E070B504460568FFF75D
:108A100033FF844202D10020FFF722FF95F92100A5
:108A2000FFF7E2FF95F92100FFF7CAFF95F9220051
:108A3000FFF7DAFF95F92200FFF7C2FF002328466F
:108A4000C4E90033A360C4E90433AB68BDE87040F7
:108A5000184790F8233001223BB190F82730022BC1
:108A600003D180F82720184670471346FBE7000023
:108A700038B5044690F824300D4651B143B90A4A3E
:108A8000012190F8250000F04FFB012384F82430E9
:108A900038BD002BFCD0044A90F8250000F044FBC0
:108AA00084F82450F4E700BF9E1D0300036A0068A9
:108AB00018470000F8B51F46536806460C46154691
:108AC000002B63D09368002B62D02822002120461F
:108AD00028F087F86B682046A361AB68E3612B7BC5
:108AE0002760012784F82030069B6360079BA36002
:108AF0002B7884F821306B7884F82230254B346051
:108B00007360254BB360254B3361254B7361254B57
:108B1000F360254B3362254B84F82770B361244BF7
:108B2000697BF3619DF8243084F8237084F8263043
:108B30009DF8203084F82530002384F82430FFF796
:108B400097FF95F90100FFF74FFF95F90130002BD2
:108B500006DB5A0903F01F039F40164B43F82270AF
:108B600095F90000FFF740FF95F90030002B08DB76
:108B70000122590903F01F0302FA03F30D4A42F8D8
:108B800021303046FFF76CFE0020F8BD2220FCE7C4
:108B90002120FAE745890000DB880000C988000031
:108BA000CF880000098A0000538A0000718A000003
:108BB000D588000000E100E04269C06982422CBF14
:108BC00000200120704703698269D154426903691A
:108BD00001324261C26901339342036104BF002341
:108BE0000361042380F827307047000090F82310B9
:108BF00010B5044651B90123064A80F8233090F895
:108C0000260000F091FA022384F8273094F823001C
:108C100010BD00BF9E1D0300826AD36C43F00403A5
:108C2000D364704710B50446826A93695B06FCD52D
:108C3000002394F82F101A4694F82E00FFF7A2F89C
:108C4000002394F831101A4694F83000FFF79AF890
:108C500094F836303BB1002394F833101A4694F858
:108C60003200FFF78FF894F836303BB1002394F8C8
:108C700035101A4694F83400FFF784F8A06A0021F2
:108C8000FFF7AAF9A08D0021FEF7A8F9002010BD7A
:108C900010B50446806AFFF75FFAA26A0020D36C21
:108CA00043F00103D36410BD2DE9FF4101261C46AA
:108CB000594B0A9D0193594B904600930A46CDE9C2
:108CC0000266574B2946FFF7F5FE074600287DD17F
:108CD00023683146AB62A3883A20AB85E37985F8F7
:108CE0002F30A37985F82E30637A85F83130237AD6
:108CF00085F83030E37A85F83330A37A85F832305E
:108D0000637B85F83530237B85F83430FEF766F9D0
:108D100033460422E179A079FFF734F83346022282
:108D2000617A207AFFF72EF83146A088FEF756F9CF
:108D3000414688F800702068FFF78CF91422A37B65
:108D40005B0103F1804303F57033C3F81C26E1791E
:108D5000A27942EA0142C3F83426617A227A42EAD1
:108D60000142C3F82C2685F8367098F81830032B8A
:108D70004FD8DFE803F01A022F490123002685F8B7
:108D8000363000230222E17AA07AFEF7FBFFE37A75
:108D9000A27AA17B42EA0342224B49015A5041F296
:108DA0005C0304212268D150BEB9A379042285F85E
:108DB0002E30E379052185F82F3042F248032068F0
:108DC000C250C36C1343C364FFF706F9384604B0BE
:108DD000BDE8F081022385F8363000230422617B50
:108DE000207BFEF7CFFF022641F21C61A27B0E4BD7
:108DF00003EB42104650607B217BB13241EA0041D7
:108E000003EB42139960D0E70323012685F836303F
:108E1000B7E72327DAE700BF258C0000198C000094
:108E2000918C000024D6034000C00340836A10B533
:108E30009B690446190609D5FFF7BEFEE0B1A06A9A
:108E4000FFF784F901462046FFF7BDFEA36A9A6C3E
:108E5000D20710D542F2480201219950DA6C20461F
:108E600022F00102DA64FFF7C1FE20B9A26AD36CD6
:108E700043F00103D36410BDA26AD36C23F0040352
:108E8000D364E3E7BFF34F8FBFF36F8F054A536A95
:108E900023F480335362D2F8943023F00103C2F8F4
:108EA0009430704700ED00E070B5FFF7EBFF1E4C0B
:108EB0001E481F4B844208BF4FF08042196B1CBFF5
:108EC00020F01F02203A21F0FF0141F0A001B2F191
:108ED000005F196309D3174D174E296842F001024C
:108EE00099600131DE601A61296084420CD011481A
:108EF000124A016822F01F0242F003029960DA6010
:108F00000F4A01311A610160BFF34F8FBFF36F8FBA
:108F100005225A600B4A536A43F480335362BFF30D
:108F20004F8FBFF36F8F70BD900E0020B00C0020EC
:108F300090ED00E09016002003000020AF0E00200E
:108F4000E1FFFF3F00ED00E010B51446FFF79AFF88
:108F50001F2C194B1ED91A6BC40622F47F4242F40F
:108F6000807218BF20F01F00144C1A6318BF203005
:108F7000CA0618BF21F01F01226820F01F0021F04F
:108F80001F019A6040F0030041F003010132D860F4
:108F900019612260BFF34F8FBFF36F8F05225A60B4
:108FA000074A536A43F480335362BFF34F8FBFF3D2
:108FB0006F8F002010BD00BF90ED00E090160020E4
:108FC00000ED00E0BFF34F8F0549064BCA6802F47D
:108FD000E0621343CB60BFF34F8F00BFFDE700BFDC
:108FE00000ED00E00400FA0508B5FFF7EBFF08BD4F
:108FF000034B1B78002B14BF01200220704700BFD9
:10900000BC1600200329F8B598BF124B06460F4640
:1090100094BF5C5C0024032805D8DFE800F0020858
:109020000B0E44F002040C4B1D684DB9F8BD44F022
:109030000804F8E744F02004F5E744F08004F2E780
:109040006B681A68144203D05B683946304698470B
:109050002D68EAE7A81D0300B8160020F8B5FEF752
:109060008BFC144C07462378134D83B1134E337891
:109070001BB100F0BFFA00233370002000F0D8FAD3
:1090800018B10023237000F0DDFA23786BB90121B9
:109090002878FFF7B7FF01232B702A78084B384652
:1090A0001A70BDE8F840FEF76BBC0122054B1A7040
:1090B000F3E700BFB6160020AC160020B41600205F
:1090C000AD160020B716002070B5FEF755FC114D07
:1090D00006462A788AB900F0C9FB044620B130461A
:1090E000FEF74EFC204670BD00F0BCFC0A4B186039
:1090F0000A48FDF729FD0A4B1C6000F0BFF900F09B
:10910000D5FA084B00241860012330462B70FEF777
:1091100037FCE7E7B5160020C4160020B81600207B
:10912000C8160020B0160020F8B50E460446FEF71B
:1091300023FC002E14BF0121FF21164A0546601EA4
:10914000135C154C0B4413542278012A1CD9FFF7E9
:109150004FFF8242074617D9104E33781BB100F0FB
:1091600049FA002333700E4A137843B10023137079
:109170000C4A0120137000F05BFA00F063FA3946E4
:109180002078FFF73FFF27702846BDE8F840FEF73C
:10919000F7BB00BFBC160020AC160020B4160020A0
:1091A000B6160020B716002010B50446FEF7E4FB03
:1091B000002C14BF0121FF21064A13780B44DBB2B7
:1091C0001370B3FA83F3BDE81040034A5B091370D0
:1091D000FEF7D6BBBF160020BE16002038B5416092
:1091E0000446FEF7C9FB054621460448FDF7AFFCDF
:1091F0002846BDE83840FEF7C3BB00BFB8160020C4
:10920000054B1B685843054B00F5742000F23F20C6
:10921000B0FBF3F0704700BFC416002040420F00BF
:109220002DE9F04F87B0FEF7A7FB0446FDF7B4FB2E
:10923000002800F0A080DFF8B0914D4699F800308A
:1092400033B15E4A1378013B1370002389F8003074
:10925000FFF7CEFEA8B101270238B84218D805A9F9
:10926000002000F0BFFB804690B9554B059A1B6863
:109270009A4200F28680514A2F701378013313709E
:1092800006E02B7823B14D4A28701378013B137008
:10929000FFF7AEFE0128834604D94A4A12780AB97C
:1092A00000F06AF9484E494F3078B2465845DFF829
:1092B0003C8109D000223A7098F8002012B9594632
:1092C000FFF7A0FE86F800B03A7832B13278022A71
:1092D00003D100223A7020F043FEBBF1010F0ED9FA
:1092E000384B1A785AB93A4A127832B9039300F0D7
:1092F0007BF90121374A039B117001221A703078E3
:1093000000F0BEF998F8003013B1334B1B7833707E
:1093100000E000BF2046FEF733FBFEF72DFB0446BE
:109320002E4800F0DDFAFDF742FB0646002885D105
:10933000244B38701A7872B1264F18703B7888F831
:10934000000013B100F056F93E70002000F070F9F3
:1093500050B300F077F92B782BB1184A1378013B02
:10936000137000232B7000219AF80000FFF74AFECB
:1093700000238AF800302046FEF702FB07B0BDE864
:10938000F08F174B1E6800F095F90599304488421C
:10939000BFF471AF0223091ACDE90083114A434695
:1093A0000E4800F0C5FA73E7012000F069F9204685
:1093B000FEF7E6FAFEF7E0FA0446C6E7BC16002020
:1093C000B0160020B6160020AC160020BE160020F5
:1093D000BF160020B4160020AD1600209416002001
:1093E000C81600205D900000C0160020B7160020AF
:1093F00038B50A4D2B787BB1094C237863B100F066
:1094000021F9084B01211878FFF7FCFD01232B708F
:109410000023054A2370137038BD00BFAC1600202E
:10942000B6160020AD160020B716002073B5114EF9
:1094300004463278824212D000238DF8043080B185
:1094400002238DF8053001A8FEF7A6FB0A4D402047
:1094500054B1FFF7D5FE2B68181A2860347002B09B
:1094600070BD8DF80500EEE7FFF7CAFE2B681844C3
:10947000F3E700BF1C0B0020D0160020F7B5002436
:1094800002A800F8044DFEF77DFB4FF400252046AE
:1094900041F26404FFF7CAFF314A324B116F01F009
:1094A00007011960D2F82031D2F8240115514FF488
:1094B0000035155102F5A0329269032900F007002A
:1094C00002F0020241D003F003039C1E6342634199
:1094D000022808BF43F001032349244C0B7062B3F8
:1094E0001F4A3BB9D2F8003103F00303581E434230
:1094F00043410B70D2F8003103F00303022B26D056
:10950000032B27D0012B28D1FDF7E0FA0027184BB9
:109510000246DB68461EC3F30B030133154803EB19
:109520008301E0FB016700233046394627F03AF912
:10953000FFF766FE2368184420606420FFF760FE92
:1095400023681844206003B0F0BD0123C0E7FDF795
:10955000DFFADBE7FDF7D0FAD8E70020D6E700BF57
:10956000008000406C270020CE160020D01600207E
:1095700000C0014040420F00FEF7AABA074B1A781C
:1095800052B100221A70064A136F23F0070343F00A
:1095900001031367FDF784BA704700BFCC160020A3
:1095A000008000400D4B10B51B78B3B1022000F0D5
:1095B000CFFB90B100F044FA78B1094B9A6DD20319
:1095C00002D5DB6D9B0708D40124064B1C70FEF707
:1095D00087FF41F22803024AD45010BDCE16002066
:1095E00000C00040CD1600200122014B1A707047C8
:1095F000CC16002038B50B4B1B788BB10A4D2A785E
:1096000062B90A4CA36DDA0302D5E36D9B0707D458
:10961000FEF766FF41F228030122E25000232B707F
:1096200038BD00BFCE160020CD16002000C000407F
:10963000034B1B780BB1FEF7C3BF0120704700BF7F
:10964000CE16002008B5FEF746FA0A4A0A49136FFB
:10965000096823F007030B431367084B1B782BB1F2
:1096600042F22803012102F58042D150BDE80840B2
:10967000FDF716BA008000406C270020CE160020AF
:1096800002280AD003280BD001280CD1064A1369FE
:1096900023F00403136130BF70470020FEF7F4B9D4
:1096A0000020FEF713BA704700ED00E04FF4C870D9
:1096B000FFF7A6BD08B5054B187818B1FEF756FFA1
:1096C00000EBD000024B1B68184408BDCE160020EA
:1096D000D01600200122014B1A707047CE160020D0
:1096E000094B07B5986800F16043B3F5004F07D305
:1096F0000023CDE900335023044A1946FEF754F9FC
:1097000003B05DF804FB00BF00ED00E0001800208E
:10971000104A30B5136841611546ABB910608360DB
:1097200011E0091B9C6841611A467CB123465C69C3
:109730008C42F6D9002CF4D052B19060836013B102
:109740005A69511A596130BD0022F0E72346F4E707
:109750002860F3E75819002010B500F0A1FA094B72
:10976000094A196831B11368C41A4B69A34203D37B
:109770001B1B4B61106003E0C01A002310604B619B
:1097800010BD00BF581900204419002038B50F4DF6
:1097900002202B685C690E4B1B681C4400F0B4FA75
:1097A000204600F085FA00230A492A680B70D08809
:1097B000800702D501230B7038BD9268002AFBD0C8
:1097C00050690344012BF2D9F6E700BF5819002075
:1097D000441900204C19002070B59DF8145016460D
:1097E00005710025049A8560BDF818500446C580AF
:1097F0000260C0E903360D4629B961610BB111461B
:10980000984796B13546FEF7BEF80646FFF7A4FF27
:1098100029462046FFF77CFF054B1B68A34201D178
:10982000FFF7B4FF3046FEF7B4F8002070BD00BF6C
:109830005819002000210C4A13687BB183420AD1D9
:10984000836879B18B6083681BB15A6941690A44A6
:109850005A610020704719469B68EEE70028EFD058
:10986000022070471360EEE75819002070B5FEF72C
:109870008AF8144E05463478FCB9134B1C60134B20
:109880001C60134B1C8000F0C9F9012000F03CFA69
:1098900000F088FA0F4B0246186020B92846FEF700
:1098A00078F8232070BD23460B4840F2E73126F0BC
:1098B00079FF0A4B1860012333702846FEF769F8D8
:1098C0000020EFE74019002058190020441900201B
:1098D0004E1900205419002018FCFFFF48190020E1
:1098E0002DE9F0410546F8B1FEF74DF80F4F064659
:1098F000FFF732FF2846D7F80080FFF79BFF0446AA
:1099000028B13046FEF745F82046BDE8F081A8456D
:109910003B6803D123B1FFF739FFF2E7002BF0D109
:10992000022000F0FDF9ECE72224EDE758190020B1
:10993000F0B50D4685B016461F46044680B1FFF7C8
:10994000CFFFBDF82C30002202939DF82830294625
:10995000CDE9007320463346FFF73EFF05B0F0BD6A
:109960002220FBE738B50C46054698B191B100239B
:109970000B70FEF708F80121074B1B680BB122782A
:109980001AB1FEF706F8002038BD9D420CBF2170C9
:109990009B68F3E72220F7E758190020F0B51F462F
:1099A000002387B00D4616468DF817300446A0B147
:1099B0000DF11701FFF7D6FF9DF817207AB9BDF812
:1099C0003430294602939DF830302046CDE90073AB
:1099D0003346FFF701FF07B0F0BD2220FBE703206D
:1099E000F9E70000F8B507460E46FDF7CCFF002466
:1099F0000546114B1B6823B92846FDF7CAFF1B20FB
:109A000015E05A691444DA88BA4213D100F048F9D3
:109A10000A4F3B68C01AA0420AD200F041F93B68E5
:109A2000C01A201A30602846FDF7B3FF0020F8BDA9
:109A30000020F7E79B68DEE7581900204419002052
:109A4000014B1878704700BF4C19002038B5FDF75E
:109A50009AFF054600F024F904462846FDF799FFD1
:109A6000204638BD014B1868704700BF54190020CC
:109A70000A4B10B51B680C4683420CD3084B4FF4BD
:109A80007A7219680023A0FB010126F08BFE0130D9
:109A90002060002010BD2120FCE700BF48190020F5
:109AA00054190020104B10B51A684FF47A73A0FBBC
:109AB0000301A2B1531E134211D1B2FA82F2C2F1D4
:109AC0001F02C2F12004A2F1200301FA04F420FADB
:109AD00002F2224321FA03F342EA030010BD0023FD
:109AE00026F060FEFAE700BF54190020C2072DE9F6
:109AF000F84F04460BD53F4A138801339BB21380BD
:109B0000FFF72AFE3C4B1B680BB1FFF73FFEA30794
:109B10006DD500F0C5F8394F00263D688046451BDD
:109B2000FDF731FFB24683463246334B1C6814B111
:109B30006369AB4214D9012E314B51D1D288022A2C
:109B40004ED11E70002C4ED06369C7F800805D1B9B
:109B50006561FFF71BFE5846BDE8F84FFDF719BFDA
:109B600023462A46C7F800805969914209D81879D6
:109B700094F804C0521A844588BF1C469B68002B89
:109B8000F2D15846FDF705FFD4F814B0C4F814A07C
:109B9000FDF7F9FE81462046FFF74CFE4846FDF7EB
:109BA000F8FE23694BB1FDF7EEFE814621692046A0
:109BB000FFF7AEFD4846FDF7ECFEE36813B1216800
:109BC0002046984700F06CF8D844A5EB080581467C
:109BD0000544FDF7D8FE013683462246C846A4E771
:109BE00000221A70AEE7022000F09AF8B3E7BDE851
:109BF000F88F00BF4E19002058190020441900208A
:109C00005019002010B5FDF7BEFE034B1C78FDF780
:109C1000C0FE204610BD00BF501900201FB5002413
:109C20001C4B012118689A88029053F8060FADF872
:109C30000C201B7900903E208DF80430FDF7CEF902
:109C400002A88DF808408DF80C40FEF74BF96946E4
:109C500001208DF80040FEF709F94FF0904340F2E3
:109C6000FF319A6922F47F7222F003029A610A4A54
:109C700011609A6A12F00802FBD11A620120FEF705
:109C80000FF94FF48052054BC3F880211A6004B0DD
:109C900010BD00BFAC1D03001420004800E100E02F
:109CA0004FF090439A6A1207FCD4186A704700007C
:109CB0004FF09042936A1907FCD4136A116C5269F1
:109CC000520604D4CA1A022A01D899420ED1C21AE5
:109CD000012A98BF981CB0F1FF3F28BF01304FF018
:109CE000904318649A6942F040029A61054A1378D9
:109CF0003BB14FF09041CB6B43F00203CB630023A9
:109D0000137070471D0B002082074FF0904200F047
:109D10000103916948BF43F040030B4393617047CF
:109D2000830700F001020AD50121084B42F04002EE
:109D300019704FF09041CB6B23F00303CB634FF0CE
:109D400090418B6923EA02038B6170471D0B002051
:109D50004FF0904301285B6904D0022805D1C3F37A
:109D60008010704703F0010070470020704700002A
:109D700010B5FDF708FE4FF0904304465B695A06A4
:109D8000074A03F0010003F0510348BF40F002000E
:109D90001360FFF7ABFE2046BDE81040FDF7F9BDAC
:109DA000142000483E20FDF763B908B5FCF736FDE6
:109DB000FCF76EFDFCF76EFDFCF779FDBDE8084091
:109DC000FCF77EBD08B5FCF77CFDFCF77BFDFCF7DE
:109DD0007AFDBDE80840FCF778BD38B50446FDF7CC
:109DE000CBFD0546204626F0B9FE04462846FDF781
:109DF000C7FD204638BD70B504460E46FDF7BCFDD4
:109E000031460546204626F057FE04462846FDF713
:109E1000B7FD204670BD38B50546FDF7ADFD0446DB
:109E2000284626F0A3FE2046BDE83840FDF7A8BD31
:109E300030B5084C63680BB9184630BD9D692D7864
:109E4000854205D15D688D4202D15D789542F3D09F
:109E50000834EFE7241E03003822002126F0C1BE9B
:109E600010B5044658B1406B18B123689B695B6913
:109E700098472046BDE81040382100F0CBBB10BD0C
:109E800038B505460C4659B13822002126F0A9FE06
:109E9000A3691B699847686320B100202C6038BD16
:109EA0000148FCE70148FAE7009FFFFF809EFFFFA3
:109EB00030B40468B4B12569AD0702D46568954231
:109EC00010D1012B4260037203D06578033D022D4F
:109ED00004D8A3699B68406B30BC184713B9A369C9
:109EE000DB68F8E7014830BC704700BF009FFFFF08
:109EF000F0B40568049E15B91448F0BC70470024FE
:109F000034606C69ECB195F801C0BCF1010F0BD164
:109F1000A24218D13260AA6954680A46A446F0BC2D
:109F200090F90810406B6047994208D1C369002B33
:109F3000E2D1B2FBF4F304FB1322002ADCD1044883
:109F4000DBE70448D9E70448D7E700BF009FFFFFDD
:109F5000809FFFFF809CFFFF809DFFFF016810B581
:109F60000446A1B100204B781060DA1E042A0DD9F6
:109F7000092B0BD00A78483A012A07D9012B08D1BE
:109F8000E3698342A0F5C54008BF002010BD024828
:109F9000FCE70248FAE700BF009FFFFF809FFFFF3A
:109FA00010B5044603F08DFC2046BDE81040FFF7D5
:109FB00032BF10B524210120FFF71DFF044608B170
:109FC00003F07BFC204610BD03F09CBC03F07FBC7B
:109FD00003F09ABC2DE9F047B2F5C07FADF50A7DDC
:109FE00007468846154600F29D804FF4D072002146
:109FF00022A826F0F6FD0DA803F05FFC2B0A002432
:10A000008DF89A30302328AE41462A4630468DF8E6
:10A010009F30ADF898408DF89B5026F0BEFD802310
:10A02000735523460DF1140803F808300133202B33
:10A03000FAD14FF4807241460DA803F048FC044663
:10A04000002851D1064619351022002101A826F01A
:10A05000C8FDAA460DF187090DF1030309F11001AE
:10A0600013F8012F19F8010F424049451A70F7D132
:10A0700001ABBAF1100F1A464FF001010DA894BFC1
:10A08000AAEB0A0AAAF1100A03F03EFC044658BBE8
:10A09000BAF1000FE0D116AB9819102201A926F0F1
:10A0A0007CFD9DF88B3010360133302E8DF88B30CF
:10A0B000CAD14FF4807216A90DA803F008FC04461B
:10A0C00090B93D4607F130061EAB1A4601210DA896
:10A0D00003F01AFC044638B9284610221EA9103590
:10A0E00026F05BFDAE42EFD10DA803F0EAFB4FF482
:10A0F000D07122A800F08EFA302116A800F08AFA5A
:10A100002021404600F086FA102101A800F082FAD2
:10A110001CB13021384600F07DFA20460DF50A7D4D
:10A12000BDE8F0876FF03704F7E72DE9F0418CB018
:10A1300004460E4630220021684626F052FD4FF0BC
:10A14000000804F120070DEB080304F1100111F8D9
:10A15000012D0132D2B20A700AB9A142F7D12246CA
:10A160000121384603F0D0FB0546E8B908F1100894
:10A17000B8F1300FE7D1731E0DF1FF322F3612F810
:10A18000011F13F8010F4140B3421170F7D14FF492
:10A1900080726946384603F09AFB054620B91022C2
:10A1A00008A9204626F0F9FC6846302100F032FA72
:10A1B00028460CB0BDE8F0812DE9F04117468269D0
:10A1C000E0B0B2F5C07F044688461E4644D8C2F5CA
:10A1D000C073B34240D3C6F5C0739B1ABB423BD396
:10A1E0004FF4C0720021684626F0FBFC636CA26944
:10A1F0006946A06C984728B16FF03305284660B0D7
:10A20000BDE8F081A5693EB1636C32466946A06C39
:10A2100098470028F0D13544B8F1000F07D037B186
:10A220000DEB05003A46414626F0B7FC3D442A4670
:10A2300069466846FFF7CEFE054638B969462046AE
:10A24000FFF773FF054608B9012323614FF4C0717E
:10A25000684600F0DFF9D1E76FF03705CEE710B5BB
:10A260004C220021044626F0BCFC4FF0FF33236152
:10A2700010BD10B5044640B1203003F022FB20464B
:10A28000BDE810404C2100F0C5B910BD0023FFF718
:10A2900093BF2DE9F04105468846144688B0202238
:10A2A0000021684605F120061F4626F09AFC30463C
:10A2B00003F003FBAB69C5E911840BB92023AB6143
:10A2C0002C69002C05DAAC692F2C8EBF00240134D8
:10A2D000640842F210734FF48072EB6169463046B5
:10A2E00003F0F5FA28B923460E9A39462846FFF7B7
:10A2F00063FF08B0BDE8F0812DE9F041B2F5806F51
:10A3000090B005460F4616469846169C5CD8B4F5A4
:10A31000807F5CD83022002104A826F062FC2A69E4
:10A32000EB699A4201DC6B699BB1224641462846A3
:10A33000FFF7ACFF044620BB05F120082EBB04A9A3
:10A340002846FFF7F2FE044698B92B6901332B61CA
:10A350000FE0002CF0D02246414604A8FFF73AFE59
:10A36000044630B904A92846FFF7DFFE044600285A
:10A37000E2D0302104A800F04DF91021684600F029
:10A3800049F9204610B0BDE8F08105F1100212F83D
:10A39000013D0133DBB213700BB9AA42F7D16B4612
:10A3A0002A460121404603F0AFFA04460028E0D1D6
:10A3B000102E344628BF102438462246694626F01F
:10A3C000ECFB2744361BB9E76FF03504D9E76FF093
:10A3D0003704D6E7002307B50093FFF78DFF03B0DE
:10A3E0005DF804FB2DE9F041202B8AB080460E4633
:10A3F00017461D4609D9002302AA2946384601F00E
:10A40000FBFD044608BB202502AFD8F800108DF8EC
:10A4100004608DF8055008F1040681B10123022281
:10A42000C8F8003001A9304603F0D4FA044660B9F8
:10A430002A463946304603F0CDFA044605E0304658
:10A4400003F0B6FA04460028E8D002A8202100F064
:10A45000E1F820460AB0BDE8F0812DE9F04300267E
:10A460008046044637466FF03B05B146A3B0D8F8A6
:10A470006C309F420BDB002E08BF6FF03C0502A83A
:10A48000802100F0C7F8284623B0BDE8F083D4F857
:10A490008030256F012BCDF8049001AB4FF0800286
:10A4A00002A9606F08BF0126A84705460028E6D12B
:10A4B000019B53B102AAF9B24046FFF793FF00286F
:10A4C000E2D1A36F019A1344A36701371434CEE796
:10A4D00038B5002504462822C5662946703026F086
:10A4E00080FB204640F8045B03F05DFAE26E012A2F
:10A4F0000BDC142303FB024304492020C3E91C1591
:10A5000001210A44C3E91F01E26638BD3FC00000D3
:10A5100038B504460025043003F047FAE5662821E3
:10A5200004F1700000F076F8256038BD2DE9F041A7
:10A53000202A88B006468846174667D84FF48175AA
:10A54000013D5DD0F36E002B5DD03046FFF785FFF7
:10A550000446D8BB034632460120D6F86CE0A64537
:10A560003CDC0028ECD01F2BEAD9202200216846D1
:10A57000351D26F036FB6946284603F032FA0446BC
:10A5800020BB284603F011FA284603F00CFA2146B6
:10A59000284603F00DFA0446C0B920226946284631
:10A5A00003F018FA044688B903466A462021684633
:10A5B00001F022FD044648B903461421F26E9A4286
:10A5C00019DC3A466946404626F0E7FA20216846FB
:10A5D00000F020F8204608B0BDE8F081D2E91EC1A5
:10A5E0008C4538BF0020D2F880100134012908BF03
:10A5F00063441432B3E701FB03650133A867DEE768
:10A600006FF03B04E2E76FF03F04DFE76FF03B04DD
:10A61000E0E700000A4619B1024B00211B68184709
:10A62000704700BF200B0020B0F5885F04D00AD827
:10A6300041F20103984216D111F0070F14BF6FF0D9
:10A64000860000207047B0F5905FF5D0B0F5105F40
:10A6500009D121F04003802BEED0B1F5807FEBD003
:10A660006FF0860070476FF0850070470B8813B15C
:10A6700002889A420AD10B6A43B94B884BB142888F
:10A680009A420CBF00206FF0860070476FF0860082
:10A69000704718467047F8B51646026A0446B2423B
:10A6A0000D461F460DD8C169284626F076FA206A65
:10A6B0000021321A284426F094FA0020236A3B60D5
:10A6C000F8BD6FF08900FBE737B504462379DD0755
:10A6D00015D503F00605022D11D0657995420BD8EA
:10A6E0009B060CD401AB04F1080001F0BAF908B9DB
:10A6F000019B637103B030BD6FF08900FAE76FF022
:10A700008800F7E710B4144600F0FE42B2F1C06FC3
:10A7100008BF20F47C5000F0FA42B2F1806F44D1BF
:10A72000324A904229D014D8314A904207D8013A8F
:10A73000904234D22F4A904207D101221EE02E4A85
:10A74000904234D00432904231D000205DF8044B66
:10A7500070472A4A904226D007D8294A90421CD0F6
:10A7600001329042F1D1042208E0264A904218D0EA
:10A7700001329042E9D1062200E0052242F2013086
:10A78000814225D015D842F20200814228D042F2FF
:10A7900004008142D9D1092013E00322EEE702220E
:10A7A000ECE70822EAE70A22E8E7174AC3E70722AC
:10A7B000E4E7B1F5105F15D042F203408142C4D105
:10A7C000052003B1187021465DF8044BFFF730BB3C
:10A7D000402C09D0802C4FF00400F2D1C024F0E7C7
:10A7E0000720EEE70220ECE70320EAE70100C004BF
:10A7F00001016004004440040100800405000006DB
:10A800000200C004010040060200C00230B400F0A3
:10A81000FE45B5F1405F0BD120F0774424F47C0471
:10A8200044F00054B4F1005F02D130BC01F03FB8F5
:10A830006FF0850030BC7047814230B540D0224B6C
:10A84000224A01EA0304944206D021F44034204D08
:10A8500024F0FF04AC4218D10340934206D020F408
:10A8600040331B4A23F0FF0393420ED110F0FF0345
:10A870000BD0184A43F08073934206D1484030F021
:10A88000FF030CBF0120002030BD00F0FE43B3F1F8
:10A89000405F17D120F0774323F47C0343F000534B
:10A8A000B3F1005F0ED101F0FE43B3F1405F09D177
:10A8B00001F47C0141F040510B1A58425841E3E742
:10A8C0000120E1E70020DFE700FFFEFF00000210AB
:10A8D00000000410FF0000012DE9F34188461E46E8
:10A8E000002302A941F8043DC8F80030174601F0E2
:10A8F0007FF90546C8B9019C238803F4E043B3F50A
:10A90000804FE36808BF27F0010737EA030310D13F
:10A910004EB131462069FFF78FFF20B9314660699B
:10A92000FFF78AFF28B1C8F80040284602B0BDE80A
:10A93000F0816FF08405F8E7F8B51646002204466A
:10A940000F461A601946406801F0AAF9054630BB67
:10A95000D4E9010101F0A6F9054600BBE36823F440
:10A96000F85323F00303FBB94FF6F87362889A4259
:10A9700017D8238B23F00103B3B93146384601F0D1
:10A980006FF9054658B90FCC37683E460FC694E8B4
:10A99000070086E807003B8B23F001033B83284632
:10A9A000F8BD6FF08505FAE76FF08605F7E70279E5
:10A9B0001AB1D0E9071201F08BBA10467047F0B413
:10A9C0000488049E04F4E045B5F5805F0CD0B5F52D
:10A9D000005F09D044F2010724F4405CBC4506D175
:10A9E000B5F5804F00D03EB9F0BCFFF754BE04F47B
:10A9F0004F44B4F5824FF3D06FF08500F0BC704740
:10AA000010F17F0FBEBF404200F4FF40404210F102
:10AA10006C0F4ED000F3CE8010F5874F00F06681AA
:10AA20006DDC10F5A14F26D035DC10F5C34F00F0DA
:10AA3000728116DC10F5C64F00F0588108DC10F565
:10AA4000C84F4FD010F5C74F3ED16FF096007047FA
:10AA500010F5C54F76D010F5C44F35D16FF0950085
:10AA6000704710F5A54F3DD008DC10F5C24F69D0F6
:10AA700010F5C14F28D16FF08500704710F5A34F36
:10AA800000F0498110F5A24F5CD010F5A44F1BD106
:10AA90006FF09100704710F5994F53D017DC10F507
:10AAA0009D4FE8D008DC10F59F4F4BD010F59E4F1E
:10AAB0000AD16FF08900704710F59C4F00F01681A5
:10AAC00010F59B4F00F027816FF08300704710F561
:10AAD0008B4F07D009DC10F5984F00F0078110F577
:10AAE000974FF1D16FF09200704710F5894F00F049
:10AAF000128110F5884FDCD010F58A4FBAE710F5B7
:10AB0000725FB8D02ADC10F5814F1BD00FDC10F536
:10AB1000844F17D005DC10F5864F96D010F5854F81
:10AB200092E710F5834FDDD010F5824F95E710F5D1
:10AB30007A5F07D009DC10F57E5F00F0EC8010F53D
:10AB40007C5FC1D16FF08600704710F5765FF9D059
:10AB500010F5745FF6D010F5785F98E710F5665F32
:10AB600089D013DC10F56C5FECD008DC10F5705F59
:10AB700002D010F56E5FA7D16FF08400704710F51A
:10AB80006A5F3FF478AF10F5685F73E710F17A0FF2
:10AB9000A8D006DC10F5645F00F0A88010F5625FB5
:10ABA0009FE710F1700F9DD010F16E0F3FF44DAF85
:10ABB00072305FE710F1290F94D059DC10F13A0F91
:10ABC00029D02BDC10F1600FBCD00EDC10F1660F29
:10ABD000B8D005DC10F16A0F00F09D806830B0E756
:10ABE00010F1640FAED06230ABE710F1510FA9D075
:10ABF00008DC10F1560F79D054307FF465AF6FF058
:10AC00008800704710F1400F05D0FFF65DAF3D3072
:10AC100001283FF659AF6FF09300704710F1340FE1
:10AC2000F9D010DC10F1370F3FF45CAF05DC10F108
:10AC3000390F3FF457AF38301CE710F1360F3FF4AF
:10AC40001AAF35304DE710F1310F3FF44BAF05DC53
:10AC500010F1330F3FF446AF32300BE710F12D0FF8
:10AC60003FF440AF10F12B0F3FF43CAF2F3038E7EB
:10AC700010F1130F3FF436AF25DC10F1220F0FDC7B
:10AC800010F1240FBFF6F7AE10F1270F3FF42AAFF3
:10AC9000FFF658AF10F1260F3FF4EDAE253020E758
:10ACA00010F1180F3FF4E7AE05DC10F1200F3FF470
:10ACB000E2AE193015E710F1160F3FF4DCAEFFF6E7
:10ACC00011AF14303DE710F10C0F3FF43BAF10DC37
:10ACD00010F1100F1FD004DC10F1120F06D011304C
:10ACE000FFE60E303FF42EAF3FF72CAF6FF094002D
:10ACF0007047821D3FF426AF05DC10F10A0F3FF4C8
:10AD000021AF0830D4E6831C3FF4C2AE00283FF4E4
:10AD1000DDAE043015E76FF08C007047F8B5C469FC
:10AD200006460F46154664B911460120FFF763F841
:10AD3000F06148B135622A46394625F02EFF20469B
:10AD4000F8BD6FF08A00FBE76FF08C00F8E7F7B50D
:10AD500004460F46164652B1038803F4E045B5F5A4
:10AD6000805F07D0B5F5005F04D05B0419D46FF0A5
:10AD7000850014E0B6F1005F4FEAC605F7D24FF642
:10AD8000F8729542F3D829461846FFF74DFC30B9C2
:10AD9000324639462046FFF7C1FF00B9658003B04F
:10ADA000F0BD448802AB43F8044D00F05CFDF6E7CB
:10ADB00038B50446C06910B1216AFFF72BFC0025A5
:10ADC000E069FFF728F8C4E9075524222946204600
:10ADD00025F007FF284638BD08B1FFF7E9BF7047E7
:10ADE00013B50446C0B101A900F002FF044698B9AA
:10ADF000019843681B0A12D10024019B1A792AB1D9
:10AE0000986800F0B8FF002C08BF04460198FFF7CF
:10AE1000CFFF002C08BF0446204602B010BD00F052
:10AE20001FFD10F1860F0446E7D1E5E7F0B51C469B
:10AE3000002385B00F4616462360012203A9FFF7C1
:10AE40004BFDA8B9039D2060A6B123463246394682
:10AE5000284600F0D0FC10F1860F09D16B681B0A60
:10AE600006D100933246234639462846FFF7A7FD10
:10AE700005B0F0BD6FF08900FAE7F0B51D4600237C
:10AE800085B00F4616462B601A4603A9FFF724FD2E
:10AE9000C8B9039C286023885B0416D5C6B12B462D
:10AEA00032463946204600F0AEFC10F1860F0AD13A
:10AEB00063681B0A07D101233246009339462B46AB
:10AEC0002046FFF77CFD05B0F0BD6FF08600FAE785
:10AED0006FF08900F7E72DE9F3411F46002305468F
:10AEE0008846CDE90033164662B301AB6A4639465F
:10AEF000FFF722FD0446B8B9009843681B0A1CD02E
:10AF0000014633464246284600F06DFC044658B9D7
:10AF1000009E29463046FFF7A9FB044620B930467B
:10AF2000FFF745FD044620B10098FFF755FF0023C9
:10AF30003B80204602B0BDE8F08132464146FFF733
:10AF400006FFE3E76FF08604F3E738B504680546CB
:10AF50006CB1047914F020040BD1083000F08FFD9F
:10AF60002B792C6003F0E00364F345132B7120462A
:10AF700005E01022002125F034FE6FF0880038BD76
:10AF80002DE9F743054616469946002B0CBF4FF4B2
:10AF900000624FF480622B680846002B40F0B380BB
:10AFA000334601A9FFF798FC0746002840F09E8031
:10AFB000584B3340B3F1207F68D1F4B244F0807431
:10AFC00004F17F43013B022B60D904F17F43043B32
:10AFD000012B5DD9504B9C425ED001339C425DD029
:10AFE00001339C425CD001339C4253D001339C42DC
:10AFF00052D001339C4251D003339C424CD0013398
:10B000009C424BD001339C424AD001339C420CBF3E
:10B01000402400242B79B9F1010F03F0F2036FF300
:10B0200045132B7105F10800019932463AD100F021
:10B03000D9FC804618F1860FC6F3052226F47C5011
:10B0400033D1019B5968090A60D12B7906F0FE467D
:10B0500043F0200361F3000361F3820361F34103D2
:10B0600061F3C30361F30413B6F1007F28602B7111
:10B070004FF01002284614BF6FF086076FF0850767
:10B0800025F0AFFD384603B0BDE8F0831024C1E7DA
:10B090001424BFE74024BDE71C24BBE72024B9E704
:10B0A0003024B7E700F0D2FCC3E7B8F1000F2DD190
:10B0B0002B791A4969F304132B718E42DBB20CBF52
:10B0C00043F0060368F3410328606C712B71AAB149
:10B0D000032A0DD96B7993420DD36A71B8F1000F31
:10B0E0000CD02846FFF731FF4746CBE78046F8E70C
:10B0F0006FF08508F5E76FF08608F2E72B7943F0EB
:10B1000001032B71BEE76FF08807BBE7002ADFD190
:10B11000E7E700BF0000C07F080000010100C00297
:10B120000123FFF72DBF38B503790446D80703D4B0
:10B130006FF08805284638BD03F006000228F7D0D6
:10B1400020680028F4D043F0080323719B06EFD455
:10B1500004F1080000F07CFC05460028EAD02046F7
:10B16000FFF7F3FEE6E72DE9F04198460368044651
:10B170000F46164623B96FF088052846BDE8F081D2
:10B18000C8F800201AB12121384625F02AFD23797C
:10B19000DB06F0D5324639462046FFF795FA0546DC
:10B1A00020466DB9FFF7D1FE054618B96379C8F896
:10B1B0000030E2E732462121384625F012FDDCE777
:10B1C000FFF7C3FED9E710B504460068A8B100F048
:10B1D000FE40B0F1806F14D1237904F108001B0701
:10B1E0000CD400F0EEFC00202379206003F0F20381
:10B1F00060F341036071A071237110BDFEF730FE52
:10B20000F1E76FF08800F8E72DE9F74F0446012BCE
:10B210001F4623681646084614BF4FF400724FF4C9
:10B220008072002B40F0908006F0FE43B3F1806FF7
:10B2300040F08D80334601A9FFF74EFB05460028FC
:10B240007CD12379464A60F3000360F3820360F304
:10B25000C30396422371DBB20CBF60F3410343F09A
:10B26000020304F10809012F6071A0712371019993
:10B27000324648460CD100F018FC804658B926608A
:10B28000237943F001032371284603B0BDE8F08F12
:10B2900000F043FCF1E710F1860F50D1019B5B6891
:10B2A0005FEA132B4BD14846FEF7D6FD019923796F
:10B2B000B1F802A043F008032371098826605B46B9
:10B2C00052463046FFF71EFA0146002837D048465E
:10B2D000FEF7D6FD00283DD101993B465246C9698B
:10B2E0004846FEF7E5FD002834D106F0FF43B3F1F0
:10B2F000906F21D0019B1B8803F4E042B2F5005F00
:10B3000004D10120C3F302239840C0B27302A0719C
:10B31000B6D5134B9E42B3D0019B1B8803F4E04289
:10B32000B2F5005F05BFC3F302220123002393405F
:10B3300008BFDBB26371A3E70120E7E78046204640
:10B34000FFF741FF45469FE76FF088059CE76FF0E8
:10B35000860599E7FFF754FB8046002890D0EEE77A
:10B36000004440040123FFF74FBF00002DE9F04FD8
:10B370000446006887B00E46DDE910C815461F4632
:10B38000002800F09A8094F804E00EF00609B9F164
:10B39000020F00F092801EF0080F0DD1CDE900C819
:10B3A00004F1080000F0F1FB034610B320460393BC
:10B3B000FFF709FF039B1CE000F0FF43B3F1906F20
:10B3C0001FBF626AA3795219B2FBF3F20CBF2B467E
:10B3D000534363456ED83A4B04F1080A98425FD153
:10B3E000A368D3F8149000230593C8F8003025B95A
:10B3F0000023184607B0BDE8F08F606A38B3A9EBA8
:10B40000000BAB4528BFAB4609305A46504425F0E7
:10B41000C4FB636AA5EB0B055B4499455E4463621C
:10B4200015D105AB00934A463B4604F11101504645
:10B43000FEF75EFDFFF7E4FA03460028B6D1D8F820
:10B44000002005990A44C8F800200F4460620DF1FD
:10B45000140B16E03B464A463146CDF800B0504644
:10B46000FEF746FDFFF7CCFA034600289ED1059A69
:10B47000D8F80030A5EB090513444E441744C8F82A
:10B480000030A945E6D9002DB2D0606A2A460930BD
:10B490003146504425F081FB636A1D446562A7E78D
:10B4A0003B462A46CDF800805046FEF721FDFFF7C7
:10B4B000A7FA79E76FF0890378E76FF0880398E7D8
:10B4C000004440042DE9FF41054600680F469046C0
:10B4D0001E46002845D02C7904F0060CBCF1020F62
:10B4E0003FD0240714D405F1080000F05CFB0446AB
:10B4F0002B791B0703D510216846FFF78BF854BB47
:10B500002846FFF760FE0446204604B0BDE8F081FF
:10B510006B6A2BB1144B984217D0144B984214D03D
:10B520003246694605F10800FEF718FDFFF768FA94
:10B5300004460028DCD13268002AD9D0424507D819
:10B540006946384625F029FBD2E76FF08604CFE73D
:10B550006FF08904CCE7002328463360FFF733FE01
:10B56000D2E76FF08804CFE7004440040001600494
:10B5700070B5114D95F8EC20D30719D50C46461837
:10B58000A035B4F5806FA6EB040104D822460B4821
:10B59000FEF720FF05E04FF480622846FEF71AFF11
:10B5A00018B1BDE87040FFF72BBAA4F58064E8E756
:10B5B0006FF0880070BD00BF5C190020FC190020EE
:10B5C0002DE9F04706469A4606F0FE4386B0B3F1F1
:10B5D000405F0846DDE90E859146109F1CD1334639
:10B5E0004FF4805205A9FFF777F9044658B9CDE921
:10B5F0000157CDF8008053464A4605993046FFF77B
:10B6000005F9044620B129464046FFF7B1FF3D60E9
:10B61000204606B0BDE8F0876FF08604F3E700230C
:10B620002DE9F341CDE90033438805468846002BD8
:10B630005DD001AB6A46FFF77FF90446002843D18D
:10B64000009B5B681B0A39D10099284600F058F925
:10B6500010F1860F04463ED16B681B0A34D1009E60
:10B66000EB696F88308813B92B6A002B36D100F450
:10B67000E043B3F5805F02D0B3F5005F24D13946D3
:10B68000FEF7D2FF0446F8B9F369FC1DE40843BB9A
:10B6900021460120FEF7AFFBF06128B3346221465A
:10B6A000FFF766FF044678B977800098FFF77FF9C7
:10B6B000044648B9204602B0BDE8F081284600F0B3
:10B6C0008FF804460028BFD00098FFF785FB0023C1
:10B6D000A8F80030EEE70028E7D0F5E76FF0860421
:10B6E000F2E76FF08A04EFE76FF08C04ECE76FF09D
:10B6F0008604DFE710B50B4C00F0A0FA94F8EC30AC
:10B7000013F0060F07D004F1A000FEF7B2FD636846
:10B7100004F108009847BDE81040F0210148FEF709
:10B7200079BF00BF5C19002030B5254B254C85B092
:10B73000039394F8EC30DB0703D50025284605B0C9
:10B7400030BD23680BB9204B236063680BB91F4BD6
:10B75000636023681E4898471E48FEF780FD01225B
:10B7600094F8EC301C4962F3420384F8EC30032374
:10B77000174A009302F1980003ABFEF78AFDFFF72A
:10B780003FF90546C8B9022294F8EC3062F342034F
:10B7900084F8EC3000F046FA054670B900F01EF867
:10B7A00010F1860F054600D038B994F8EC3043F01C
:10B7B000010384F8EC30002DBFD0FFF79BFFBDE7FD
:10B7C000505341005C190020D1A4000011A50000D5
:10B7D00064190020FC1900202DA5000003F085BC91
:10B7E0006FF0850070474B681B0A0CBF6FF0850037
:10B7F0006FF08600704743681B0A0CBF6FF085002E
:10B800006FF0860070472DE9F04198460546002309
:10B8100006468CB003ACCDE90A338C4617460FCDF3
:10B820000FC495E80700736884E807001B0A11D16C
:10B83000BDF80C3003F4E043B3F5804F0DD0D6E9EA
:10B840000712CDE90078634603A803F02DFA0CB087
:10B85000BDE8F0816FF08600F9E76FF08500F6E74C
:10B860006FF0860070472DE9F0431F460546002320
:10B87000884691468BB001ACCDE9083306460FCD22
:10B880000FC495E807003B4684E807004A46414656
:10B8900001A803F07DFA38B94A4641463046FFF721
:10B8A0003DFA08B93B6873800BB0BDE8F0832DE921
:10B8B000F04198460D4600230E4690B007ACCDE906
:10B8C0000E33844617460FCD0FC495E80700736802
:10B8D00084E807001B0A10D1189B00970493179B5C
:10B8E00007A90393169B6046CDE90183D6E9072398
:10B8F00003F06AF810B0BDE8F0816FF08600F9E758
:10B900004268F8B5120A06460D464F680388448817
:10B910000AD103F4E042B2F5805F02D0B2F5005FD5
:10B9200005D10734E40864B96FF0850452E047F2AA
:10B93000010293421CD164080134E40804EBC404FE
:10B940003B3421460120FEF756FA0146E861002803
:10B9500045D03B0A2C623FD12B885B042ED46FF07C
:10B960008504E869FEF757FA0023C5E9073331E09B
:10B9700044F20102934202D1E4081034E1E747F2B5
:10B980000202934204D1E40804EB44045A34D8E799
:10B9900044F20202934204D1E40804EB44044A3422
:10B9A000CFE723F0FF03B3F5E24FBAD0B3F5824FF0
:10B9B000BAD10734E40864000134C2E7224605F135
:10B9C0002003304603F0AAF810F1860F0446C6D0D3
:10B9D0000028C6D12046F8BD6FF08604C1E76FF09D
:10B9E0008C04F7E72DE9F04300230D468DB003AC3E
:10B9F000CDE90A334F680646884691460FCD0FC4FD
:10BA000095E807003F0A84E807001CD16421012063
:10BA1000FEF7F1F9D8E907237060CDF8009003A98B
:10BA200003F078FA044628B90523336020460DB0A8
:10BA3000BDE8F08364217068FEF7ECFD7068FEF7E6
:10BA4000EAF97760F2E76FF08604EFE7FFF7CABF25
:10BA50000368052B02D1406803F0A2BA6FF088009A
:10BA6000704710B40468052C04D140685DF8044B9D
:10BA700003F0EEBA6FF088005DF8044B704738B5FC
:10BA80000546D0E9004000B954B1052C0AD103F0B5
:10BA900021FB04466868FEF7BEF90023C5E90033C0
:10BAA000204638BD6FF08804FAE72DE9F043002303
:10BAB0000D468DB003ACCDE90A334F680646884683
:10BAC00091460FCD0FC495E807003F0A84E80700B0
:10BAD0001DD154210120FEF78EF97060D0B1D8E954
